:1003B50053545544454E54532050524553532031C0
:1003C500005445414348455253205052455353200C
:1003D5003200454E5445522050415353574F5244D5
:1003E500002A00434F52524543540050524553533F
:1003F500203120544F20455849542000494E434F41
:1004050052524543540054312050524553532031E4
:100415000054322050524553532032003120544964
:100425004D45200032204C4541564500454E54452A
:10043500522054494D45004C4541564520434F4EA9
:100445004649524D454420005431204C45415645BE
:1004550020202020202020200054312041564149D1
:100465004C41424C452020202000543120554E411E
:100475005641494C41424C452020005431204255BB
:100485005359202020202020202020005432204CA9
:100495004541564520202020202020200054322090
:1004A500415641494C41424C4520202020005432C0
:1004B50020554E415641494C41424C45202000545F
:1004C5003220425553592020202020202020200072
:1004D500543120004241434B2042592000415641AE
:1004E500494C41424C4520202020202020004255E7
:1004F5005359202020202020202020202020004C7F
:100505004541564520202020202020202020200065
:1005150054322000505245535320414E59204B45EB
:100525005920544F004C4F47494E00787820787831
:09053500000078782078780000BD
:100ADA00103B3132334134353642373839432A30C4
:020AEA002344A3
:10000300E4F508F509F50AF50B780F7C00FD7BFF95
:100013007A057930FE7F0712060E78167C007D0084
:100023007BFF7A0579377E007F0712060EE4F51D04
:10003300F51EF51FF520120ABA120661C2B2C2B349
:1000430075A0F030801220810F0509E509700205C3
:1000530008AD1EAC1DFF801A208023308120E509E6
:1000630045086008E509150970021508AD1EAC1DA9
:10007300AF09AE081209B77FF47E01120A9A3082E3
:100083001220830F050BE50B7002050AAD20AC1F90
:10009300FF801A208223308320E50B450A6008E5A0
:1000A3000B150B7002150AAD20AC1FAF0BAE0A1275
:1000B30009567FF47E01120A9AAFA0EF64F06080C4
:1000C3007F01120AED7A0379B5120A157BFF7A03D1
:1000D30079C6E4FD7F02120A1B1208198F21E5215C
:1000E300643160030201A97F01120AED120A1112A1
:1000F3000A96E4F54CF54D120819AD4D740C2DF824
:10010300A6077BFF7A0379E67F02120A1B054DE5FA
:100113004D7002054CC39403E54C6480948040D732
:10012300E50C64317069E50D64327063E50E643388
:10013300705D7BFF7A0379E8FD7F03120A1B7FE87A
:100143007E03120A9A7F01120AED851F2885202952
:10015300752A00752B00752C0F752D00752E0075F3
:100163002F16AB1EAA1DAD0BAC0AAF09AE081207C2
:10017300617BFF7A0379F0E4FD7F03120A1B120807
:10018300198F21E521643160030200430203957B4B
:10019300FF7A047901E4FD7F03120A1B7FE87E03E3
:1001A300120A9A020395E521643260030200437F39
:1001B30001120AED120A11120A96E4F54CF54D12DA
:1001C3000819AD4D740C2DF8A6077BFF7A0379E669
:1001D3007F02120A1B054DE54D7002054CC39403C3
:1001E300E54C6480948040D7E50C643460030203DB
:1001F3009BE50D6435600302039BE50E64366003E3
:1002030002039B7BFF7A0379E8FD7F03120A1B7FBE
:10021300E87E03120A9A7F01120AED7BFF7A0479C2
:100223000B120A177BFF7A047916E4FD7F02120A88
:100233001B1208198F21E521643160030202E97F53
:1002430001120AED7BFF7A047921120A177BFF7AE8
:10025300047929E4FD7F02120A1B1208198F21E594
:10026300216431705A7F01120AED7BFF7A047931E0
:10027300120A177FC0120AEDE4F54CF54DE54D6403
:1002830002454C7009740F254DF87620800A120838
:1002930019740F254DF8A607740F254DF8E6FF12C4
:1002A3000AF9054DE54D7002054CC39405E54C6410
:1002B30080948040C87FE87E03120A9A020395E582
:1002C30021643260030200437F01120AED751D00B1
:1002D300751E017BFF7A04793C120A177FE87E03BF
:1002E300120A9A020395E521643260030200437FF8
:1002F30001120AED7BFF7A047921120A177BFF7A38
:10030300047929E4FD7F02120A1B1208198F21E5E3
:1003130021643170597F01120AED7BFF7A04793130
:10032300120A177FC0120AEDE4F54CF54DE54D6452
:1003330002454C70097416254DF87620800A120880
:10034300197416254DF8A6077416254DF8E6FF1205
:100353000AF9054DE54D7002054CC39405E54C645F
:1003630080948040C87FE87E03120A9A8024E521A6
:10037300643260030200437F01120AED751F0075AA
:1003830020017BFF7A04793C120A177FE87E03126F
:100393000A9A1206610200437BFF7A047901E4FDA5
:1003A3007F03120A1B7FE87E03120A9A1206610278
:0203B300004305
:1009B7008E228F23ED64014C700EC2B27BFF7A0446
:1009C700794DFD7F01020A1BE52364014522700A68
:1009D700D2B27BFF7A04795E8026E5234522700A2E
:1009E700C2B27BFF7A04796F8016D3E5239401E5C1
:1009F70022648094804012D2B27BFF7A047980E42B
:0A0A0700FD7F01120A1B120A96225D
:100956008E228F23ED64014C700EC2B37BFF7A04A6
:100966007991FD7F02020A1BE5236401452270117D
:10097600D2B37BFF7A0479A2FD7F02120A1B120A08
:1009860096E5234522700AC2B37BFF7A0479B380C9
:1009960016D3E5239401E522648094804012D2B3F5
:1009A6007BFF7A0479C4E4FD7F02120A1B120A96C1
:0109B600221E
:100761008E228F238C248D258A268B277F01120AC6
:10077100ED7BFF7A0479D5120A17E52745267035F6
:10078100E523452270177BFF7A0479D97D037F0128
:10079100120A1BAB2AAA2BA92C7D0C8020E523640D
:1007A1000145227BFF70067A0479E280047A04799C
:1007B100F37D0380087BFF7A0579047D037F0112B5
:1007C1000A1B7BFF7A057915E4FD7F02120A1BE5FE
:1007D1002945287035E525452470177BFF7A047972
:1007E100D97D037F02120A1BAB2DAA2EA92F7D0CE6
:1007F1008020E525640145247BFF70067A0479E2B7
:1008010080047A0479F37D0380087BFF7A057904FB
:080811007D037F02120A1B2285
:080A9200C2B5D2B77F1E7E0041
:100A9A00E4FDFCC3ED9FEC9E5015E4FBFA0BBB0092
:0F0AAA00010AEB64704A70F50DBD00010C80E489
:010AB900221A
:0C0AED008F90C2B6120A92C2B7020A9A99
:0C0AF9008F90D2B6120A92C2B7020A9A7D
:060A67008B358A36893749
:100A6D00E4F538F539AB35AA36A93785398285389D
:100A7D0083120634FF600D120AF90539E53970E568
:040A8D00053880E1C7
:010A91002242
:0A0A11007A0379D77BFFE4FD7F0133
:100A1B008F308D318B328A338934EF64017008E566
:100A2B0031540F44808028E53064027008E531545E
:100A3B000F44C0801AE53064037008E531540F444D
:100A4B0094800CE5306404700AE531540F44D4FFF4
:0C0A5B00120AEDAB32AA33A934020A677C
:10066100851F28852029AB1EAA1DAD0BAC0AAF0939
:02067100AE08D1
:100673008E228F238C248D258B828A837F01120AFD
:10068300EDE582640145837010C2B27BFF7A047981
:100693004DFD7F01120A1B8041E523640145227051
:1006A3000AD2B27BFF7A04795E8026E52345227065
:1006B3000AC2B27BFF7A04796F8016D3E5239401D3
:1006C300E522648094804012D2B27BFF7A04798061
:1006D300E4FD7F01120A1B120A96E52964014528ED
:1006E3007010C2B37BFF7A047991FD7F02120A1B5B
:1006F3008048E525640145247011D2B37BFF7A0459
:1007030079A2FD7F02120A1B120A96E52545247081
:100713000AC2B37BFF7A0479B38016D3E52594012B
:10072300E524648094804012D2B37BFF7A0479C4B9
:10073300E4FD7F02120A1B120A967BFF7A057919E0
:10074300E4FD7F03120A1B120A967BFF7A05792ABE
:0E075300E4FD7F04120A1B7F1E7E00020A9A3C
:100ABA007F327E00120A9A7F38120AED7F0C120AE0
:100ACA00ED7F01120AED7F06120AED7F80020AED20
:1008190075A0F075A0F085A03A533AF0E53A64F076
:1008290070F1120A96E5A054F0F53A64F060F312FB
:100839000A9AE5A054F0F53A64F060E675A0FEE581
:10084900A054F0F53A64F06005E4F54B803475A0E6
:10085900FDE5A054F0F53A64F06005754B0180227E
:1008690075A0FBE5A054F0F53A64F06005754B02FC
:10087900801075A0F7E5A054F0F53A64F060BD75F5
:100889004B03E53AFD7C0064E0700AE54B25E02561
:10089900E0243B8028ED64D04C700AE54B25E02527
:1008A900E0243C8018E53A64B0700AE54B25E02560
:1008B900E0243D8008E54B25E025E0243EF8E6FFED
:0108C900220C
:030000000208CA29
:0C08CA00787FE4F6D8FD75814D0209111D
:10053E00E709F608DFFA8046E709F208DFFA803E9F
:10054E0088828C83E709F0A3DFFA8032E309F6088C
:10055E00DFFA8078E309F208DFFA807088828C83F4
:10056E00E309F0A3DFFA806489828A83E0A3F608A8
:10057E00DFFA805889828A83E0A3F208DFFA804C82
:10058E0080D280FA80C680D4806980F28033801059
:10059E0080A680EA809A80A880DA80E280CA8033C2
:1005AE0089828A83ECFAE493A3C8C582C8CCC5833A
:1005BE00CCF0A3C8C582C8CCC583CCDFE9DEE7800A
:1005CE000D89828A83E493A3F608DFF9ECFAA9F089
:1005DE00EDFB2289828A83ECFAE0A3C8C582C8CCDF
:1005EE00C583CCF0A3C8C582C8CCC583CCDFEADEF8
:1005FE00E880DB89828A83E493A3F208DFF980CC5A
:10060E0088F0EF60010E4E60C388F0ED2402B40452
:10061E000050B9F582EB2402B4040050AF232345F9
:06062E00822390058E738B
:10063400BB010CE58229F582E5833AF583E022507B
:1006440006E92582F8E622BBFE06E92582F8E222C5
:0D065400E58229F582E5833AF583E49322DF
:1008D600020003E493A3F8E493A34003F68001F235
:1008E60008DFF48029E493A3F85407240CC8C33323
:1008F600C4540F4420C8834004F456800146F6DFF2
:10090600E4800B0102040810204080900ADAE47E9D
:10091600019360BCA3FF543F30E509541FFEE493E6
:10092600A360010ECF54C025E060A840B8E493A3AD
:10093600FAE493A3F8E493A3C8C582C8CAC583CAD8
:10094600F0A3C8C582C8CAC583CADFE9DEE780BE90
:010AEC000009
:00000001FF
